:100000000C942A000C943C000C943C000C943C0092
:100010000C943C000C943C000C943C000C943C0070
:100020000C943C000C9469000C943C000C943C0033
:100030000C943C000C943C000C943C000C943C0050
:100040000C943C000C943C000C943C000C943C0040
:100050000C943C0011241FBECFE5D4E0DEBFCDBF21
:1000600010E0A0E6B0E001C01D92A236B107E1F7B2
:100070000E9445000C9488000C9400008F9A979A77
:10008000D098D89A0E94640008950E943E00789407
:1000900061E05BE029E130E04FE0C899FECF69BF45
:1000A0005093610080EA9FE0F9013197F1F70197E1
:1000B000D9F74093610080E797E1F9013197F1F7B3
:1000C0000197D9F719BEE9CF83E083BF85EF82BFDF
:1000D00008951F920F920FB60F9211248F939F9342
:1000E00080916000882311F4979801C0979A8091BD
:1000F000600091E0981B9093600080916100819571
:1001000082BF9F918F910F900FBE0F901F901895F7
:04011000F894FFCF91
:00000001FF
